{
  "abi": [
    {
      "type": "constructor",
      "inputs": [],
      "stateMutability": "nonpayable"
    },
    {
      "type": "function",
      "name": "admin",
      "inputs": [],
      "outputs": [
        {
          "name": "",
          "type": "address",
          "internalType": "address"
        }
      ],
      "stateMutability": "view"
    },
    {
      "type": "function",
      "name": "createEscrow",
      "inputs": [
        {
          "name": "_seller",
          "type": "address",
          "internalType": "address payable"
        }
      ],
      "outputs": [
        {
          "name": "",
          "type": "uint256",
          "internalType": "uint256"
        }
      ],
      "stateMutability": "payable"
    },
    {
      "type": "function",
      "name": "escrowCount",
      "inputs": [],
      "outputs": [
        {
          "name": "",
          "type": "uint256",
          "internalType": "uint256"
        }
      ],
      "stateMutability": "view"
    },
    {
      "type": "function",
      "name": "escrows",
      "inputs": [
        {
          "name": "",
          "type": "uint256",
          "internalType": "uint256"
        }
      ],
      "outputs": [
        {
          "name": "buyer",
          "type": "address",
          "internalType": "address payable"
        },
        {
          "name": "seller",
          "type": "address",
          "internalType": "address payable"
        },
        {
          "name": "amount",
          "type": "uint256",
          "internalType": "uint256"
        },
        {
          "name": "status",
          "type": "uint8",
          "internalType": "enum Escrow.Status"
        }
      ],
      "stateMutability": "view"
    },
    {
      "type": "function",
      "name": "fundEscrow",
      "inputs": [
        {
          "name": "_escrowId",
          "type": "uint256",
          "internalType": "uint256"
        }
      ],
      "outputs": [],
      "stateMutability": "nonpayable"
    },
    {
      "type": "function",
      "name": "openDispute",
      "inputs": [
        {
          "name": "_escrowId",
          "type": "uint256",
          "internalType": "uint256"
        }
      ],
      "outputs": [],
      "stateMutability": "nonpayable"
    },
    {
      "type": "function",
      "name": "releaseFunds",
      "inputs": [
        {
          "name": "_escrowId",
          "type": "uint256",
          "internalType": "uint256"
        }
      ],
      "outputs": [],
      "stateMutability": "nonpayable"
    },
    {
      "type": "function",
      "name": "renderService",
      "inputs": [
        {
          "name": "_escrowId",
          "type": "uint256",
          "internalType": "uint256"
        }
      ],
      "outputs": [],
      "stateMutability": "nonpayable"
    },
    {
      "type": "function",
      "name": "settleDispute",
      "inputs": [
        {
          "name": "_escrowId",
          "type": "uint256",
          "internalType": "uint256"
        },
        {
          "name": "_winner",
          "type": "address",
          "internalType": "address payable"
        }
      ],
      "outputs": [],
      "stateMutability": "nonpayable"
    },
    {
      "type": "event",
      "name": "EscrowCompleted",
      "inputs": [
        {
          "name": "escrowId",
          "type": "uint256",
          "indexed": true,
          "internalType": "uint256"
        }
      ],
      "anonymous": false
    },
    {
      "type": "event",
      "name": "EscrowCreated",
      "inputs": [
        {
          "name": "escrowId",
          "type": "uint256",
          "indexed": true,
          "internalType": "uint256"
        },
        {
          "name": "buyer",
          "type": "address",
          "indexed": false,
          "internalType": "address"
        },
        {
          "name": "seller",
          "type": "address",
          "indexed": false,
          "internalType": "address"
        },
        {
          "name": "amount",
          "type": "uint256",
          "indexed": false,
          "internalType": "uint256"
        }
      ],
      "anonymous": false
    },
    {
      "type": "event",
      "name": "EscrowDisputed",
      "inputs": [
        {
          "name": "escrowId",
          "type": "uint256",
          "indexed": true,
          "internalType": "uint256"
        }
      ],
      "anonymous": false
    },
    {
      "type": "event",
      "name": "EscrowFunded",
      "inputs": [
        {
          "name": "escrowId",
          "type": "uint256",
          "indexed": true,
          "internalType": "uint256"
        }
      ],
      "anonymous": false
    },
    {
      "type": "event",
      "name": "EscrowSettled",
      "inputs": [
        {
          "name": "escrowId",
          "type": "uint256",
          "indexed": true,
          "internalType": "uint256"
        },
        {
          "name": "winner",
          "type": "address",
          "indexed": false,
          "internalType": "address"
        }
      ],
      "anonymous": false
    },
    {
      "type": "event",
      "name": "ServiceRendered",
      "inputs": [
        {
          "name": "escrowId",
          "type": "uint256",
          "indexed": true,
          "internalType": "uint256"
        }
      ],
      "anonymous": false
    }
  ],
  "bytecode": {
    "object": "0x608060405234801561001057600080fd5b50600080546001600160a01b03191633179055610aa4806100326000396000f3fe6080604052600436106100865760003560e01c80634d68282f116100595780634d68282f1461015a578063675ac67a1461017a578063c9c31af51461019e578063f6a8419e146101be578063f851a440146101d157600080fd5b8063012f52ee1461008b5780630a4373a5146100f857806327d00fb01461011a57806331dd328d1461013a575b600080fd5b34801561009757600080fd5b506100df6100a636600461091b565b600160208190526000918252604090912080549181015460028201546003909201546001600160a01b0393841693909116919060ff1684565b6040516100ef949392919061094a565b60405180910390f35b34801561010457600080fd5b5061011861011336600461091b565b610209565b005b34801561012657600080fd5b5061011861013536600461091b565b610320565b34801561014657600080fd5b506101186101553660046109b2565b610422565b34801561016657600080fd5b5061011861017536600461091b565b61058a565b34801561018657600080fd5b5061019060025481565b6040519081526020016100ef565b3480156101aa57600080fd5b506101186101b936600461091b565b6106a9565b6101906101cc3660046109de565b6107b5565b3480156101dd57600080fd5b506000546101f1906001600160a01b031681565b6040516001600160a01b0390911681526020016100ef565b600081815260016020819052604090912090600382015460ff16600481111561023457610234610934565b146102865760405162461bcd60e51b815260206004820152601e60248201527f457363726f77206973206e6f7420696e2046756e64656420737461747573000060448201526064015b60405180910390fd5b60018101546001600160a01b031633146102e25760405162461bcd60e51b815260206004820152601e60248201527f4f6e6c792073656c6c65722063616e2072656e64657220736572766963650000604482015260640161027d565b60038101805460ff1916600217905560405182907fcbba5c214e90e74f208ec20d0e650969621268d8e20f4a9b526b7888ef2611e990600090a25050565b60008181526001602052604090206002600382015460ff16600481111561034957610349610934565b146103665760405162461bcd60e51b815260040161027d90610a00565b80546001600160a01b031633148061038a575060018101546001600160a01b031633145b6103e45760405162461bcd60e51b815260206004820152602560248201527f4f6e6c79206275796572206f722073656c6c65722063616e206f70656e206469604482015264737075746560d81b606482015260840161027d565b60038101805460ff1916600417905560405182907f7ce7831fed9a800b1aa5e7ca21034bf7b95efc31a196459012cf8b8eb42b7dac90600090a25050565b6000546001600160a01b031633146104875760405162461bcd60e51b815260206004820152602260248201527f4f6e6c792061646d696e2063616e20706572666f726d2074686973206163746960448201526137b760f11b606482015260840161027d565b60008281526001602052604090206004600382015460ff1660048111156104b0576104b0610934565b146104fd5760405162461bcd60e51b815260206004820181905260248201527f457363726f77206973206e6f7420696e20446973707574656420737461747573604482015260640161027d565b60028101546040516001600160a01b0384169180156108fc02916000818181858888f19350505050158015610536573d6000803e3d6000fd5b506003818101805460ff191690911790556040516001600160a01b038316815283907ff5dde0e957b684da3593919e376a90f68464ceeb87b129f57207725783f3d5429060200160405180910390a2505050565b60008181526001602052604090206002600382015460ff1660048111156105b3576105b3610934565b146105d05760405162461bcd60e51b815260040161027d90610a00565b80546001600160a01b031633146106295760405162461bcd60e51b815260206004820152601c60248201527f4f6e6c792062757965722063616e2072656c656173652066756e647300000000604482015260640161027d565b600181015460028201546040516001600160a01b039092169181156108fc0291906000818181858888f19350505050158015610669573d6000803e3d6000fd5b506003818101805460ff1916909117905560405182907f9285bd636dda01bef18996aa38303bb742f6c67a6941646dddb17630cb492c2e90600090a25050565b600081815260016020526040812090600382015460ff1660048111156106d1576106d1610934565b1461071e5760405162461bcd60e51b815260206004820152601f60248201527f457363726f77206973206e6f7420696e20437265617465642073746174757300604482015260640161027d565b80546001600160a01b031633146107775760405162461bcd60e51b815260206004820152601e60248201527f4f6e6c792062757965722063616e2066756e642074686520657363726f770000604482015260640161027d565b60038101805460ff1916600117905560405182907f3b4f5a74452cddb80ae5a0d279eb7db6afd5e556e72ca2883016b1da7c9d211690600090a25050565b60008034116108115760405162461bcd60e51b815260206004820152602260248201527f416d6f756e742073686f756c642062652067726561746572207468616e207a65604482015261726f60f01b606482015260840161027d565b6002805490600061082183610a47565b9091555050604080516080810182523381526001600160a01b0384811660208084019182523484860190815260006060860181815260028054835260019485905297909120865181549087166001600160a01b0319918216178255945181850180549190971695169490941790945551948201949094559051600382018054939492939192909160ff1916908360048111156108bf576108bf610934565b021790555050600254604080513381526001600160a01b0386166020820152348183015290519192507f9405ad0a6208539879349284d71265479b1623846f70303da1f9890d6e8c10a7919081900360600190a2505060025490565b60006020828403121561092d57600080fd5b5035919050565b634e487b7160e01b600052602160045260246000fd5b6001600160a01b0385811682528416602082015260408101839052608081016005831061098757634e487b7160e01b600052602160045260246000fd5b82606083015295945050505050565b80356001600160a01b03811681146109ad57600080fd5b919050565b600080604083850312156109c557600080fd5b823591506109d560208401610996565b90509250929050565b6000602082840312156109f057600080fd5b6109f982610996565b9392505050565b60208082526027908201527f457363726f77206973206e6f7420696e205365727669636552656e64657265646040820152662073746174757360c81b606082015260800190565b600060018201610a6757634e487b7160e01b600052601160045260246000fd5b506001019056fea26469706673582212202ace23373103b745c4e56f8f28c0706e32f6b589e46761004208d53bb973397c64736f6c63430008110033",
    "linkReferences": {}
  },
  "methodIdentifiers": {
    "admin()": "f851a440",
    "createEscrow(address)": "f6a8419e",
    "escrowCount()": "675ac67a",
    "escrows(uint256)": "012f52ee",
    "fundEscrow(uint256)": "c9c31af5",
    "openDispute(uint256)": "27d00fb0",
    "releaseFunds(uint256)": "4d68282f",
    "renderService(uint256)": "0a4373a5",
    "settleDispute(uint256,address)": "31dd328d"
  },
  "id": 23
}